{
  "contractName": "AccessController",
  "abi": [
    {
      "inputs": [],
      "stateMutability": "nonpayable",
      "type": "constructor"
    },
    {
      "anonymous": false,
      "inputs": [
        {
          "indexed": false,
          "internalType": "address",
          "name": "newAdminAddress",
          "type": "address"
        }
      ],
      "name": "AddedAdmin",
      "type": "event"
    },
    {
      "anonymous": false,
      "inputs": [
        {
          "indexed": false,
          "internalType": "address",
          "name": "newOwnerAddress",
          "type": "address"
        }
      ],
      "name": "OwnerSet",
      "type": "event"
    },
    {
      "anonymous": false,
      "inputs": [],
      "name": "Paused",
      "type": "event"
    },
    {
      "anonymous": false,
      "inputs": [
        {
          "indexed": false,
          "internalType": "address",
          "name": "prevAdminAddress",
          "type": "address"
        }
      ],
      "name": "RemovedAdmin",
      "type": "event"
    },
    {
      "anonymous": false,
      "inputs": [],
      "name": "Unpaused",
      "type": "event"
    },
    {
      "inputs": [],
      "name": "adminAddress",
      "outputs": [
        {
          "internalType": "address",
          "name": "",
          "type": "address"
        }
      ],
      "stateMutability": "view",
      "type": "function"
    },
    {
      "inputs": [],
      "name": "ownerAddress",
      "outputs": [
        {
          "internalType": "address",
          "name": "",
          "type": "address"
        }
      ],
      "stateMutability": "view",
      "type": "function"
    },
    {
      "inputs": [],
      "name": "paused",
      "outputs": [
        {
          "internalType": "bool",
          "name": "",
          "type": "bool"
        }
      ],
      "stateMutability": "view",
      "type": "function"
    },
    {
      "inputs": [
        {
          "internalType": "address",
          "name": "_newOwnerAddress",
          "type": "address"
        }
      ],
      "name": "updateOwner",
      "outputs": [],
      "stateMutability": "nonpayable",
      "type": "function"
    },
    {
      "inputs": [
        {
          "internalType": "address",
          "name": "_newAdminAddress",
          "type": "address"
        }
      ],
      "name": "setAdmin",
      "outputs": [],
      "stateMutability": "nonpayable",
      "type": "function"
    },
    {
      "inputs": [],
      "name": "pause",
      "outputs": [],
      "stateMutability": "nonpayable",
      "type": "function"
    },
    {
      "inputs": [],
      "name": "unpause",
      "outputs": [],
      "stateMutability": "nonpayable",
      "type": "function"
    }
  ],
  "bytecode": "0x60806040526001805460ff60a01b1916905534801561001d57600080fd5b50600080546001600160a01b03191633178082556001600160a01b03908116825260026020526040808320805460ff19166001179055915491517f50146d0e3c60aa1d17a70635b05494f864e86144a2201275021014fbf08bafe2926100849216906100d6565b60405180910390a16000546040517f7849194239ab1d31b991b5436d81370256505cf25eaafbcccbc66acd11896916916100c9916001600160a01b03909116906100d6565b60405180910390a16100ea565b6001600160a01b0391909116815260200190565b610625806100f96000396000f3fe608060405234801561001057600080fd5b506004361061007d5760003560e01c80638456cb591161005b5780638456cb59146100bd578063880cdc31146100c55780638f84aa09146100d8578063fc6f9468146100ed5761007d565b80633f4ba83a146100825780635c975abb1461008c578063704b6c02146100aa575b600080fd5b61008a6100f5565b005b610094610193565b6040516100a19190610455565b60405180910390f35b61008a6100b8366004610413565b6101a3565b61008a6102b8565b61008a6100d3366004610413565b610354565b6100e06103f5565b6040516100a19190610441565b6100e0610404565b3360009081526002602052604090205460ff1615156001146101325760405162461bcd60e51b81526004016101299061051e565b60405180910390fd5b600154600160a01b900460ff1661015b5760405162461bcd60e51b8152600401610129906105ac565b6001805460ff60a01b191690556040517fa45f47fdea8a1efdd9029a5691c7f759c32b7c698632b563573e155625d1693390600090a1565b600154600160a01b900460ff1681565b6000546001600160a01b031633146101cd5760405162461bcd60e51b815260040161012990610565565b6001600160a01b0381166101f35760405162461bcd60e51b815260040161012990610460565b600180546001600160a01b0390811660009081526002602052604090819020805460ff19169055915491517f3137a7fedbfedb7895dfa5a6812a4566dae9ded68d00aeec13c6ed1fa84a1c809261024b921690610441565b60405180910390a1600180546001600160a01b0319166001600160a01b03838116919091179182905516600081905260026020526040517f7849194239ab1d31b991b5436d81370256505cf25eaafbcccbc66acd11896916916102ad91610441565b60405180910390a150565b3360009081526002602052604090205460ff1615156001146102ec5760405162461bcd60e51b81526004016101299061051e565b600154600160a01b900460ff16156103165760405162461bcd60e51b8152600401610129906104a5565b6001805460ff60a01b1916600160a01b1790556040517f9e87fac88ff661f02d44f95383c817fece4bce600a3dab7a54406878b965e75290600090a1565b6000546001600160a01b0316331461037e5760405162461bcd60e51b815260040161012990610565565b6001600160a01b0381166103a45760405162461bcd60e51b8152600401610129906104dc565b600080546001600160a01b0319166001600160a01b0383811691909117918290556040517f50146d0e3c60aa1d17a70635b05494f864e86144a2201275021014fbf08bafe2926102ad921690610441565b6000546001600160a01b031681565b6001546001600160a01b031681565b600060208284031215610424578081fd5b81356001600160a01b038116811461043a578182fd5b9392505050565b6001600160a01b0391909116815260200190565b901515815260200190565b60208082526025908201527f416363657373436f6e74726f6c3a20696e76616c696420776f726b6572206164604082015264647265737360d81b606082015260800190565b6020808252601f908201527f416363657373436f6e74726f6c3a2063757272656e746c792070617573656400604082015260600190565b60208082526022908201527f416363657373436f6e74726f6c3a20696e76616c69642043454f206164647265604082015261737360f01b606082015260800190565b60208082526027908201527f416363657373436f6e74726f6c3a206d73672e73656e646572206d7573742062604082015266329030b236b4b760c91b606082015260800190565b60208082526027908201527f416363657373436f6e74726f6c3a206d73672e73656e646572206d7573742062604082015266329037bbb732b960c91b606082015260800190565b60208082526023908201527f416363657373436f6e74726f6c3a2063757272656e6c7479206e6f74207061756040820152621cd95960ea1b60608201526080019056fea264697066735822122056ccd92812ef9cf29c79628a79be44135201a69c9e91160eca3c17004b4215ac64736f6c63430008000033",
  "immutableReferences": {},
  "source": "// SPDX-License-Identifier: MIT\r\n\r\npragma solidity ^0.8.0;\r\n\r\ncontract AccessController {\r\n\r\n    address public ownerAddress;\r\n    address public adminAddress;\r\n\r\n    bool public paused = false;\r\n    \r\n    //owner is included as an admin\r\n    mapping (address => bool) isAdmin;\r\n\r\n    event OwnerSet(address newOwnerAddress);\r\n    event RemovedAdmin(address prevAdminAddress);\r\n    event AddedAdmin(address newAdminAddress);\r\n\r\n    event Paused();\r\n    event Unpaused();\r\n\r\n    constructor() \r\n    {\r\n        ownerAddress = msg.sender;\r\n        isAdmin[ownerAddress] = true;\r\n       \r\n        emit OwnerSet(ownerAddress);\r\n        emit AddedAdmin(ownerAddress);\r\n    }\r\n\r\n    modifier onlyOwner()\r\n    {\r\n        require(\r\n            msg.sender == ownerAddress,\r\n            'AccessControl: msg.sender must be owner'\r\n        );\r\n        _;\r\n    }\r\n\r\n    modifier onlyAdmin()\r\n    {\r\n        require(\r\n            isAdmin[msg.sender] == true,\r\n            'AccessControl: msg.sender must be admin'\r\n        );\r\n        _;\r\n    }\r\n\r\n    modifier whenNotPaused()\r\n    {\r\n        require(\r\n            !paused,\r\n            'AccessControl: currently paused'\r\n        );\r\n        _;\r\n    }\r\n\r\n    modifier whenPaused\r\n    {\r\n        require(\r\n            paused,\r\n            'AccessControl: currenlty not paused'\r\n        );\r\n        _;\r\n    }\r\n\r\n    function updateOwner(address _newOwnerAddress) \r\n        external\r\n        onlyOwner\r\n    {\r\n        require(\r\n            _newOwnerAddress != address(0x0),\r\n            'AccessControl: invalid CEO address'\r\n        );\r\n        ownerAddress = _newOwnerAddress;\r\n        emit OwnerSet(ownerAddress);\r\n    }\r\n\r\n    function setAdmin(address _newAdminAddress)\r\n        public\r\n        onlyOwner\r\n    {\r\n        require(\r\n            _newAdminAddress != address(0x0),\r\n            'AccessControl: invalid worker address'\r\n        );\r\n        //remove prev admin\r\n        isAdmin[adminAddress] = false;\r\n        emit RemovedAdmin(adminAddress);\r\n        \r\n        //set new admin + add to mapping\r\n        adminAddress = _newAdminAddress;\r\n        isAdmin[adminAddress] == true;\r\n        emit AddedAdmin(adminAddress);\r\n    }\r\n\r\n    function pause()\r\n        external\r\n        onlyAdmin\r\n        whenNotPaused\r\n    {\r\n        paused = true;\r\n        emit Paused();\r\n    }\r\n\r\n    function unpause()\r\n        external\r\n        onlyAdmin\r\n        whenPaused\r\n    {\r\n        paused = false;\r\n        emit Unpaused();\r\n    }\r\n}",
  "sourcePath": "c:\\dev\\bolita_launcher\\contracts\\common-contracts\\AccessControl.sol",
  "compiler": {
    "name": "solc",
    "version": "0.8.0+commit.c7dfd78e.Emscripten.clang"
  },
  "schemaVersion": "3.4.1",
  "updatedAt": "2021-06-07T19:16:33.261Z",
  "devdoc": {
    "kind": "dev",
    "methods": {},
    "version": 1
  },
  "userdoc": {
    "kind": "user",
    "methods": {},
    "version": 1
  }
}