{
  "contractName": "Bolita",
  "abi": [
    {
      "inputs": [],
      "stateMutability": "payable",
      "type": "constructor"
    },
    {
      "anonymous": false,
      "inputs": [
        {
          "indexed": false,
          "internalType": "uint256",
          "name": "amountNeeded",
          "type": "uint256"
        }
      ],
      "name": "ALERTFundingNeeded",
      "type": "event"
    },
    {
      "anonymous": false,
      "inputs": [
        {
          "indexed": false,
          "internalType": "address",
          "name": "newAdminAddress",
          "type": "address"
        }
      ],
      "name": "AddedAdmin",
      "type": "event"
    },
    {
      "anonymous": false,
      "inputs": [
        {
          "indexed": false,
          "internalType": "address",
          "name": "bettor",
          "type": "address"
        },
        {
          "indexed": false,
          "internalType": "uint16",
          "name": "numberBetOn",
          "type": "uint16"
        }
      ],
      "name": "BetAccepted",
      "type": "event"
    },
    {
      "anonymous": false,
      "inputs": [
        {
          "indexed": false,
          "internalType": "address[]",
          "name": "bettors",
          "type": "address[]"
        },
        {
          "indexed": false,
          "internalType": "enum Bolita.BetType",
          "name": "_betType",
          "type": "uint8"
        }
      ],
      "name": "BetCleared",
      "type": "event"
    },
    {
      "anonymous": false,
      "inputs": [
        {
          "indexed": false,
          "internalType": "bool",
          "name": "bettingIsClosedStatus",
          "type": "bool"
        }
      ],
      "name": "BettingIsClosed",
      "type": "event"
    },
    {
      "anonymous": false,
      "inputs": [
        {
          "indexed": false,
          "internalType": "bool",
          "name": "bettingIsOpenStatus",
          "type": "bool"
        }
      ],
      "name": "BettingIsOpen",
      "type": "event"
    },
    {
      "anonymous": false,
      "inputs": [
        {
          "indexed": false,
          "internalType": "address",
          "name": "_winner",
          "type": "address"
        }
      ],
      "name": "GotPaid",
      "type": "event"
    },
    {
      "anonymous": false,
      "inputs": [
        {
          "indexed": false,
          "internalType": "address",
          "name": "newOwnerAddress",
          "type": "address"
        }
      ],
      "name": "OwnerSet",
      "type": "event"
    },
    {
      "anonymous": false,
      "inputs": [],
      "name": "Paused",
      "type": "event"
    },
    {
      "anonymous": false,
      "inputs": [
        {
          "indexed": false,
          "internalType": "address",
          "name": "_winnerNotYetPaid",
          "type": "address"
        }
      ],
      "name": "PaymentIsQueued",
      "type": "event"
    },
    {
      "anonymous": false,
      "inputs": [
        {
          "indexed": false,
          "internalType": "address",
          "name": "",
          "type": "address"
        },
        {
          "indexed": false,
          "internalType": "uint256",
          "name": "",
          "type": "uint256"
        }
      ],
      "name": "Received",
      "type": "event"
    },
    {
      "anonymous": false,
      "inputs": [
        {
          "indexed": false,
          "internalType": "address",
          "name": "prevAdminAddress",
          "type": "address"
        }
      ],
      "name": "RemovedAdmin",
      "type": "event"
    },
    {
      "anonymous": false,
      "inputs": [],
      "name": "Unpaused",
      "type": "event"
    },
    {
      "anonymous": false,
      "inputs": [
        {
          "indexed": false,
          "internalType": "uint16",
          "name": "firstWinningNum",
          "type": "uint16"
        },
        {
          "indexed": false,
          "internalType": "uint16",
          "name": "secondWinningNum",
          "type": "uint16"
        },
        {
          "indexed": false,
          "internalType": "uint16",
          "name": "thirdWinningNum",
          "type": "uint16"
        }
      ],
      "name": "WinningNumbers",
      "type": "event"
    },
    {
      "anonymous": false,
      "inputs": [
        {
          "indexed": false,
          "internalType": "address[]",
          "name": "winners",
          "type": "address[]"
        },
        {
          "indexed": false,
          "internalType": "enum Bolita.BetType",
          "name": "_betType",
          "type": "uint8"
        }
      ],
      "name": "winners",
      "type": "event"
    },
    {
      "stateMutability": "payable",
      "type": "fallback"
    },
    {
      "inputs": [],
      "name": "adminAddress",
      "outputs": [
        {
          "internalType": "address",
          "name": "",
          "type": "address"
        }
      ],
      "stateMutability": "view",
      "type": "function"
    },
    {
      "inputs": [],
      "name": "bBettingIsOpen",
      "outputs": [
        {
          "internalType": "bool",
          "name": "",
          "type": "bool"
        }
      ],
      "stateMutability": "view",
      "type": "function"
    },
    {
      "inputs": [],
      "name": "bPaymentsAreBacklogged",
      "outputs": [
        {
          "internalType": "bool",
          "name": "",
          "type": "bool"
        }
      ],
      "stateMutability": "view",
      "type": "function"
    },
    {
      "inputs": [],
      "name": "calledByContractFunction",
      "outputs": [
        {
          "internalType": "bool",
          "name": "",
          "type": "bool"
        }
      ],
      "stateMutability": "view",
      "type": "function"
    },
    {
      "inputs": [],
      "name": "ownerAddress",
      "outputs": [
        {
          "internalType": "address",
          "name": "",
          "type": "address"
        }
      ],
      "stateMutability": "view",
      "type": "function"
    },
    {
      "inputs": [],
      "name": "pause",
      "outputs": [],
      "stateMutability": "nonpayable",
      "type": "function"
    },
    {
      "inputs": [],
      "name": "paused",
      "outputs": [
        {
          "internalType": "bool",
          "name": "",
          "type": "bool"
        }
      ],
      "stateMutability": "view",
      "type": "function"
    },
    {
      "inputs": [
        {
          "internalType": "address",
          "name": "_newAdminAddress",
          "type": "address"
        }
      ],
      "name": "setAdmin",
      "outputs": [],
      "stateMutability": "nonpayable",
      "type": "function"
    },
    {
      "inputs": [],
      "name": "singleDigitWinnings",
      "outputs": [
        {
          "internalType": "uint256",
          "name": "",
          "type": "uint256"
        }
      ],
      "stateMutability": "view",
      "type": "function"
    },
    {
      "inputs": [],
      "name": "unpause",
      "outputs": [],
      "stateMutability": "nonpayable",
      "type": "function"
    },
    {
      "inputs": [
        {
          "internalType": "address",
          "name": "_newOwnerAddress",
          "type": "address"
        }
      ],
      "name": "updateOwner",
      "outputs": [],
      "stateMutability": "nonpayable",
      "type": "function"
    },
    {
      "stateMutability": "payable",
      "type": "receive"
    },
    {
      "inputs": [],
      "name": "sendETHtoContract",
      "outputs": [],
      "stateMutability": "payable",
      "type": "function"
    },
    {
      "inputs": [
        {
          "internalType": "uint256",
          "name": "_amount",
          "type": "uint256"
        }
      ],
      "name": "withdrawBalanceFromContract",
      "outputs": [],
      "stateMutability": "nonpayable",
      "type": "function"
    },
    {
      "inputs": [
        {
          "internalType": "uint16",
          "name": "_numBetOn",
          "type": "uint16"
        }
      ],
      "name": "getAddressesByBet",
      "outputs": [
        {
          "internalType": "address[]",
          "name": "",
          "type": "address[]"
        }
      ],
      "stateMutability": "view",
      "type": "function"
    },
    {
      "inputs": [
        {
          "internalType": "address",
          "name": "_player",
          "type": "address"
        },
        {
          "internalType": "uint16",
          "name": "_numberBetOn",
          "type": "uint16"
        }
      ],
      "name": "betOnFirstDigit",
      "outputs": [],
      "stateMutability": "payable",
      "type": "function"
    },
    {
      "inputs": [
        {
          "internalType": "address",
          "name": "_player",
          "type": "address"
        },
        {
          "internalType": "uint16",
          "name": "_numberBetOn",
          "type": "uint16"
        }
      ],
      "name": "betOnSecondDigit",
      "outputs": [],
      "stateMutability": "payable",
      "type": "function"
    },
    {
      "inputs": [
        {
          "internalType": "address",
          "name": "_player",
          "type": "address"
        },
        {
          "internalType": "uint16",
          "name": "_numberBetOn",
          "type": "uint16"
        }
      ],
      "name": "betOnThirdDigit",
      "outputs": [],
      "stateMutability": "payable",
      "type": "function"
    },
    {
      "inputs": [
        {
          "internalType": "address",
          "name": "_playerAddress",
          "type": "address"
        },
        {
          "internalType": "uint16",
          "name": "numberBetOn",
          "type": "uint16"
        },
        {
          "internalType": "enum Bolita.BetType",
          "name": "_betType",
          "type": "uint8"
        }
      ],
      "name": "makeBet",
      "outputs": [],
      "stateMutability": "payable",
      "type": "function"
    },
    {
      "inputs": [],
      "name": "closeBetting",
      "outputs": [],
      "stateMutability": "nonpayable",
      "type": "function"
    },
    {
      "inputs": [
        {
          "internalType": "uint16",
          "name": "_firstWinningNum",
          "type": "uint16"
        },
        {
          "internalType": "uint16",
          "name": "_secondWinningNum",
          "type": "uint16"
        },
        {
          "internalType": "uint16",
          "name": "_thirdWinningNum",
          "type": "uint16"
        }
      ],
      "name": "setWinningNumber",
      "outputs": [],
      "stateMutability": "payable",
      "type": "function"
    },
    {
      "inputs": [
        {
          "internalType": "uint16",
          "name": "_firstWinningNum",
          "type": "uint16"
        },
        {
          "internalType": "uint16",
          "name": "_secondWinningNum",
          "type": "uint16"
        },
        {
          "internalType": "uint16",
          "name": "_thirdWinningNum",
          "type": "uint16"
        }
      ],
      "name": "processWinners",
      "outputs": [],
      "stateMutability": "payable",
      "type": "function"
    },
    {
      "inputs": [
        {
          "internalType": "address[]",
          "name": "_winners",
          "type": "address[]"
        },
        {
          "internalType": "uint256",
          "name": "_winningAmount",
          "type": "uint256"
        }
      ],
      "name": "payWinners",
      "outputs": [],
      "stateMutability": "payable",
      "type": "function"
    },
    {
      "inputs": [
        {
          "internalType": "enum Bolita.BetType",
          "name": "_betType",
          "type": "uint8"
        }
      ],
      "name": "clearBets",
      "outputs": [],
      "stateMutability": "nonpayable",
      "type": "function"
    },
    {
      "inputs": [],
      "name": "payoutBackloggedWinners",
      "outputs": [],
      "stateMutability": "payable",
      "type": "function"
    }
  ],
  "bytecode": "0x60806040526001805460ff60a01b19169055620000316611c37937e0800060056200013f602090811b620018ba17901c565b600955600080546001600160a01b03191633178082556001600160a01b03908116825260026020526040808320805460ff19166001179055915491517f50146d0e3c60aa1d17a70635b05494f864e86144a2201275021014fbf08bafe2926200009c9216906200019f565b60405180910390a16000546040517f7849194239ab1d31b991b5436d81370256505cf25eaafbcccbc66acd1189691691620000e3916001600160a01b03909116906200019f565b60405180910390a16008805460ff1916600117908190556040517fc97a6b956ad91e8d476b46d0241f23466bbc4f2fb5626aac8be3c6b39e5787a591620001319160ff9190911690620001b3565b60405180910390a16200024c565b600082620001505750600062000199565b60006200015e838562000220565b9050826200016d8583620001ff565b14620001965760405162461bcd60e51b81526004016200018d90620001be565b60405180910390fd5b90505b92915050565b6001600160a01b0391909116815260200190565b901515815260200190565b60208082526021908201527f536166654d6174683a206d756c7469706c69636174696f6e206f766572666c6f6040820152607760f81b606082015260800190565b6000826200021b57634e487b7160e01b81526012600452602481fd5b500490565b60008160001904831182151516156200024757634e487b7160e01b81526011600452602481fd5b500290565b6120ed806200025c6000396000f3fe60806040526004361061018f5760003560e01c8063880cdc31116100d6578063d71866de1161007f578063f86af99d11610059578063f86af99d146103e5578063fc6f9468146103f8578063fd86c11a1461040d576101cf565b8063d71866de1461039d578063e87c0831146103b0578063eb5a24ed146103c5576101cf565b806395cb4f5b116100b057806395cb4f5b14610362578063a8a4d5f414610375578063cffcbe3e14610388576101cf565b8063880cdc31146102fe5780638f84aa091461031e57806390ddb2a814610340576101cf565b806359a7726111610138578063704b6c0211610112578063704b6c02146102b4578063820aa17b146102d45780638456cb59146102e9576101cf565b806359a772611461023c5780635c975abb1461027257806368589b9614610294576101cf565b80633f4ba83a116101695780633f4ba83a1461020c57806342495937146102215780635102dda514610229576101cf565b806309eaf695146101d157806315ac534d146101e4578063366cb5b8146101f9576101cf565b366101cf577f88a5966d370b9919b20f3e2c13ff65706f196a4e32cc2c12bf57088f8852587433346040516101c5929190611b84565b60405180910390a1005b005b6101cf6101df3660046119c5565b610415565b3480156101f057600080fd5b506101cf61065a565b6101cf610207366004611b02565b610712565b34801561021857600080fd5b506101cf610a02565b6101cf610a97565b6101cf610237366004611b02565b610ac6565b34801561024857600080fd5b5061025c610257366004611ae8565b610c57565b6040516102699190611b9d565b60405180910390f35b34801561027e57600080fd5b50610287610cd1565b6040516102699190611c63565b3480156102a057600080fd5b506101cf6102af366004611ace565b610ce1565b3480156102c057600080fd5b506101cf6102cf366004611972565b610f8a565b3480156102e057600080fd5b5061028761109f565b3480156102f557600080fd5b506101cf6110a8565b34801561030a57600080fd5b506101cf610319366004611972565b611144565b34801561032a57600080fd5b506103336111e5565b6040516102699190611b53565b34801561034c57600080fd5b506103556111f4565b6040516102699190611fee565b6101cf610370366004611993565b6111fa565b6101cf610383366004611993565b611206565b34801561039457600080fd5b50610287611212565b6101cf6103ab366004611a07565b611220565b3480156103bc57600080fd5b506102876115e2565b3480156103d157600080fd5b506101cf6103e0366004611b3b565b6115f1565b6101cf6103f3366004611993565b611654565b34801561040457600080fd5b50610333611660565b6101cf61166f565b34806611c37937e08000146104455760405162461bcd60e51b815260040161043c90611e2f565b60405180910390fd5b6001600160a01b038416600090815260066020526040902054849060ff161515600114156104855760405162461bcd60e51b815260040161043c90611d21565b60085460ff1615156001146104ac5760405162461bcd60e51b815260040161043c90611d81565b600380546001810182557fc2575a0e9e593c00f959f8c92f12db2869c3395a3b0502d05e2516446f71f85b0180546001600160a01b0319166001600160a01b03881617905561ffff8516600090815260056020526040812091859081111561052457634e487b7160e01b600052602160045260246000fd5b600381111561054357634e487b7160e01b600052602160045260246000fd5b8152602080820192909252604090810160009081208054600181810183559183528483200180546001600160a01b038b166001600160a01b0319909116811790915582526006909352818120805460ff191684179055600a805493840181558152601083047fc65a7bb8d6351c1cf70c95a316cc6a92839c986682d98bc35f958f4883f9d2a801805461ffff808a166002600f909716969096026101000a95860295021916939093179092555130913480156108fc02929091818181858888f19350505050158015610619573d6000803e3d6000fd5b507f0abc4e7f533d9b8ff6093a88ce71b224aacbdb9d037840f9e9f15c57563e3820858560405161064b929190611b67565b60405180910390a15050505050565b3360009081526002602052604090205460ff16151560011461068e5760405162461bcd60e51b815260040161043c90611e66565b6008805460ff191690556040517fc97a6b956ad91e8d476b46d0241f23466bbc4f2fb5626aac8be3c6b39e5787a5906106c990600090611c63565b60405180910390a16008546040517ff84cb1af59cb4590086391dba5a09f9efa0b10c1c9c9e855e7d326bd72f4e6ea916107089160ff90911690611c63565b60405180910390a1565b3360009081526002602052604090205460ff1615156001146107465760405162461bcd60e51b815260040161043c90611e66565b60085460ff16156107695760405162461bcd60e51b815260040161043c90611d58565b60085460ff6101009091041615156001146107965760405162461bcd60e51b815260040161043c90611ead565b8260098161ffff1611156107bc5760405162461bcd60e51b815260040161043c90611f0f565b8260098161ffff1611156107e25760405162461bcd60e51b815260040161043c90611f0f565b8260098161ffff1611156108085760405162461bcd60e51b815260040161043c90611f0f565b61ffff8616600090815260056020908152604080832083805290915280822090517ff4492c9a66a5c77157b2bb6fe1534eb4292f10c190baa1961dcf8f9f39f906a5926108559291611bea565b60405180910390a161ffff851660009081526005602052604081207ff4492c9a66a5c77157b2bb6fe1534eb4292f10c190baa1961dcf8f9f39f906a5916001815260200190815260200160002060016040516108b2929190611bea565b60405180910390a161ffff841660009081526005602052604081207ff4492c9a66a5c77157b2bb6fe1534eb4292f10c190baa1961dcf8f9f39f906a59160028152602001908152602001600020600260405161090f929190611bea565b60405180910390a161ffff861660009081526005602052604081206109be91805b600381111561094f57634e487b7160e01b600052602160045260246000fd5b81526020019081526020016000208054806020026020016040519081016040528092919081815260200182805480156109b157602002820191906000526020600020905b81546001600160a01b03168152600190910190602001808311610993575b5050505050600954611220565b61ffff851660009081526005602052604081206109dc916001610930565b61ffff841660009081526005602052604081206109fa916002610930565b505050505050565b3360009081526002602052604090205460ff161515600114610a365760405162461bcd60e51b815260040161043c90611e66565b600154600160a01b900460ff16610a5f5760405162461bcd60e51b815260040161043c90611f8d565b6001805460ff60a01b191690556040517fa45f47fdea8a1efdd9029a5691c7f759c32b7c698632b563573e155625d1693390600090a1565b60405130903480156108fc02916000818181858888f19350505050158015610ac3573d6000803e3d6000fd5b50565b3360009081526002602052604090205460ff161515600114610afa5760405162461bcd60e51b815260040161043c90611e66565b60085460ff1615610b1d5760405162461bcd60e51b815260040161043c90611d58565b8260098161ffff161115610b435760405162461bcd60e51b815260040161043c90611f0f565b8260098161ffff161115610b695760405162461bcd60e51b815260040161043c90611f0f565b8260098161ffff161115610b8f5760405162461bcd60e51b815260040161043c90611f0f565b7f7e0747819c59e9af1ae3a531c7b2628aecb92f65f972b34224e5d7a5ec7fcec7868686604051610bc293929190611fd0565b60405180910390a16008805461ff001916610100179055610be4868686610712565b610bee6000610ce1565b610bf86001610ce1565b610c026002610ce1565b6008805461ffff1916600117908190556040517fc97a6b956ad91e8d476b46d0241f23466bbc4f2fb5626aac8be3c6b39e5787a591610c479160ff9190911690611c63565b60405180910390a1505050505050565b61ffff81166000908152600560209081526040808320838052825291829020805483518184028101840190945280845260609392830182828015610cc457602002820191906000526020600020905b81546001600160a01b03168152600190910190602001808311610ca6575b505050505090505b919050565b600154600160a01b900460ff1681565b60085460ff1615610d045760405162461bcd60e51b815260040161043c90611d58565b3360009081526002602052604090205460ff161515600114610d385760405162461bcd60e51b815260040161043c90611e66565b60005b600a5461ffff82161015610f03577f78afc9b5f40e5b157d6bc74e89e3249dd13fa34060cf4a3a7caf1efdb33f3fd460056000600a8461ffff1681548110610d9357634e487b7160e01b600052603260045260246000fd5b90600052602060002090601091828204019190066002029054906101000a900461ffff1661ffff1661ffff1681526020019081526020016000206000846003811115610def57634e487b7160e01b600052602160045260246000fd5b6003811115610e0e57634e487b7160e01b600052602160045260246000fd5b815260200190815260200160002083604051610e2b929190611bea565b60405180910390a160056000600a8361ffff1681548110610e5c57634e487b7160e01b600052603260045260246000fd5b90600052602060002090601091828204019190066002029054906101000a900461ffff1661ffff1661ffff1681526020019081526020016000206000836003811115610eb857634e487b7160e01b600052602160045260246000fd5b6003811115610ed757634e487b7160e01b600052602160045260246000fd5b81526020019081526020016000206000610ef19190611908565b80610efb8161204e565b915050610d3b565b5060005b60035461ffff82161015610f865760006006600060038461ffff1681548110610f4057634e487b7160e01b600052603260045260246000fd5b6000918252602080832091909101546001600160a01b031683528201929092526040019020805460ff191691151591909117905580610f7e8161204e565b915050610f07565b5050565b6000546001600160a01b03163314610fb45760405162461bcd60e51b815260040161043c90611f46565b6001600160a01b038116610fda5760405162461bcd60e51b815260040161043c90611c6e565b600180546001600160a01b0390811660009081526002602052604090819020805460ff19169055915491517f3137a7fedbfedb7895dfa5a6812a4566dae9ded68d00aeec13c6ed1fa84a1c8092611032921690611b53565b60405180910390a1600180546001600160a01b0319166001600160a01b03838116919091179182905516600081905260026020526040517f7849194239ab1d31b991b5436d81370256505cf25eaafbcccbc66acd118969169161109491611b53565b60405180910390a150565b60085460ff1681565b3360009081526002602052604090205460ff1615156001146110dc5760405162461bcd60e51b815260040161043c90611e66565b600154600160a01b900460ff16156111065760405162461bcd60e51b815260040161043c90611cea565b6001805460ff60a01b1916600160a01b1790556040517f9e87fac88ff661f02d44f95383c817fece4bce600a3dab7a54406878b965e75290600090a1565b6000546001600160a01b0316331461116e5760405162461bcd60e51b815260040161043c90611f46565b6001600160a01b0381166111945760405162461bcd60e51b815260040161043c90611dac565b600080546001600160a01b0319166001600160a01b0383811691909117918290556040517f50146d0e3c60aa1d17a70635b05494f864e86144a2201275021014fbf08bafe292611094921690611b53565b6000546001600160a01b031681565b60095481565b610f8682826001610415565b610f8682826000610415565b600854610100900460ff1681565b3360009081526002602052604090205460ff1615156001146112545760405162461bcd60e51b815260040161043c90611e66565b60085460ff6101009091041615156001146112815760405162461bcd60e51b815260040161043c90611ead565b60085460ff16156112a45760405162461bcd60e51b815260040161043c90611d58565b8160006112bd60095483516118ba90919063ffffffff16565b9050804710156114a4577f3fcdefdb7dd789699a4241945ed61868ea68da8cec1f8e557071445bfa3e31e8816040516112f69190611fee565b60405180910390a16008805462ff000019166201000017905560005b82518110156114a2577fba0d4a5560f5b026c20b433c4b82854c210486af70792c6df696a70dd8c6903b83828151811061135c57634e487b7160e01b600052603260045260246000fd5b60200260200101516040516113719190611b53565b60405180910390a16007600084838151811061139d57634e487b7160e01b600052603260045260246000fd5b60200260200101516001600160a01b03166001600160a01b03168152602001908152602001600020546000141561142c5760048382815181106113f057634e487b7160e01b600052603260045260246000fd5b60209081029190910181015182546001810184556000938452919092200180546001600160a01b0319166001600160a01b039092169190911790555b6009546007600085848151811061145357634e487b7160e01b600052603260045260246000fd5b60200260200101516001600160a01b03166001600160a01b03168152602001908152602001600020600082825461148a9190611ff7565b9091555081905061149a81612070565b915050611312565b505b60005b84518110156115db5760006001600160a01b03168582815181106114db57634e487b7160e01b600052603260045260246000fd5b60200260200101516001600160a01b0316141561150a5760405162461bcd60e51b815260040161043c90611ed8565b84818151811061152a57634e487b7160e01b600052603260045260246000fd5b60200260200101516001600160a01b03166108fc859081150290604051600060405180830381858888f1935050505015801561156a573d6000803e3d6000fd5b507f1a3f6490970104a95fbb7dfbc098383b73f3d764bd48ff35120b5a3e45c7fa9f8582815181106115ac57634e487b7160e01b600052603260045260246000fd5b60200260200101516040516115c19190611b53565b60405180910390a1806115d381612070565b9150506114a7565b5050505050565b60085462010000900460ff1681565b6000546001600160a01b0316331461161b5760405162461bcd60e51b815260040161043c90611f46565b600080546040516001600160a01b039091169183156108fc02918491818181858888f19350505050158015610f86573d6000803e3d6000fd5b610f8682826002610415565b6001546001600160a01b031681565b3360009081526002602052604090205460ff1615156001146116a35760405162461bcd60e51b815260040161043c90611e66565b6004546116c25760405162461bcd60e51b815260040161043c90611cb3565b6009546004546000916116d591906118ba565b905080471061188b5760005b6004548110156118795760006001600160a01b03166004828154811061171757634e487b7160e01b600052603260045260246000fd5b6000918252602090912001546001600160a01b0316141561174a5760405162461bcd60e51b815260040161043c90611ed8565b6004818154811061176b57634e487b7160e01b600052603260045260246000fd5b6000918252602082200154600480546001600160a01b03909216926108fc9260079290869081106117ac57634e487b7160e01b600052603260045260246000fd5b60009182526020808320909101546001600160a01b03168352820192909252604090810182205490518115909302929091818181858888f193505050501580156117fa573d6000803e3d6000fd5b507f1a3f6490970104a95fbb7dfbc098383b73f3d764bd48ff35120b5a3e45c7fa9f6004828154811061183d57634e487b7160e01b600052603260045260246000fd5b60009182526020909120015460405161185f916001600160a01b031690611b53565b60405180910390a18061187181612070565b9150506116e1565b506008805462ff000019169055610ac3565b7f3fcdefdb7dd789699a4241945ed61868ea68da8cec1f8e557071445bfa3e31e8816040516110949190611fee565b6000826118c957506000611902565b60006118d5838561202f565b9050826118e2858361200f565b146118ff5760405162461bcd60e51b815260040161043c90611dee565b90505b92915050565b5080546000825590600052602060002090810190610ac391905b808211156119365760008155600101611922565b5090565b80356001600160a01b0381168114610ccc57600080fd5b803560048110610ccc57600080fd5b803561ffff81168114610ccc57600080fd5b600060208284031215611983578081fd5b61198c8261193a565b9392505050565b600080604083850312156119a5578081fd5b6119ae8361193a565b91506119bc60208401611960565b90509250929050565b6000806000606084860312156119d9578081fd5b6119e28461193a565b92506119f060208501611960565b91506119fe60408501611951565b90509250925092565b60008060408385031215611a19578182fd5b823567ffffffffffffffff80821115611a30578384fd5b818501915085601f830112611a43578384fd5b8135602082821115611a5757611a576120a1565b80820260405182828201018181108682111715611a7657611a766120a1565b604052838152828101945085830182870184018b1015611a94578889fd5b8896505b84871015611abd57611aa98161193a565b865260019690960195948301948301611a98565b509997909101359750505050505050565b600060208284031215611adf578081fd5b61198c82611951565b600060208284031215611af9578081fd5b61198c82611960565b600080600060608486031215611b16578283fd5b611b1f84611960565b9250611b2d60208501611960565b91506119fe60408501611960565b600060208284031215611b4c578081fd5b5035919050565b6001600160a01b0391909116815260200190565b6001600160a01b0392909216825261ffff16602082015260400190565b6001600160a01b03929092168252602082015260400190565b6020808252825182820181905260009190848201906040850190845b81811015611bde5783516001600160a01b031683529284019291840191600101611bb9565b50909695505050505050565b6000604082016040835280855480835260608501915086845260209250828420845b82811015611c315781546001600160a01b031684529284019260019182019101611c0c565b5050508092505060048410611c5657634e487b7160e01b600052602160045260246000fd5b8381840152509392505050565b901515815260200190565b60208082526025908201527f416363657373436f6e74726f6c3a20696e76616c696420776f726b6572206164604082015264647265737360d81b606082015260800190565b60208082526015908201527f4e4f204241434b4c4f474745442057494e4e4552530000000000000000000000604082015260600190565b6020808252601f908201527f416363657373436f6e74726f6c3a2063757272656e746c792070617573656400604082015260600190565b6020808252601b908201527f43414e4e4f542045584345454420312042455420504552204441590000000000604082015260600190565b6020808252600f908201526e2132ba3a34b7339034b99037b832b760891b604082015260600190565b60208082526011908201527010995d1d1a5b99c81a5cc818db1bdcd959607a1b604082015260600190565b60208082526022908201527f416363657373436f6e74726f6c3a20696e76616c69642043454f206164647265604082015261737360f01b606082015260800190565b60208082526021908201527f536166654d6174683a206d756c7469706c69636174696f6e206f766572666c6f6040820152607760f81b606082015260800190565b6020808252601b908201527f42657420416d6f756e74206d757374206265202e303035204554480000000000604082015260600190565b60208082526027908201527f416363657373436f6e74726f6c3a206d73672e73656e646572206d7573742062604082015266329030b236b4b760c91b606082015260800190565b602080825260119082015270109313d0d2d25391c81153d04810d05313607a1b604082015260600190565b60208082526018908201527f43414e4e4f54205553452054455354204143434f554e54530000000000000000604082015260600190565b60208082526019908201527f57696e6e696e67206469676974206d75737420626520302d3900000000000000604082015260600190565b60208082526027908201527f416363657373436f6e74726f6c3a206d73672e73656e646572206d7573742062604082015266329037bbb732b960c91b606082015260800190565b60208082526023908201527f416363657373436f6e74726f6c3a2063757272656e6c7479206e6f74207061756040820152621cd95960ea1b606082015260800190565b61ffff93841681529183166020830152909116604082015260600190565b90815260200190565b6000821982111561200a5761200a61208b565b500190565b60008261202a57634e487b7160e01b81526012600452602481fd5b500490565b60008160001904831182151516156120495761204961208b565b500290565b600061ffff808316818114156120665761206661208b565b6001019392505050565b60006000198214156120845761208461208b565b5060010190565b634e487b7160e01b600052601160045260246000fd5b634e487b7160e01b600052604160045260246000fdfea2646970667358221220ecaf389f9f620a81b2544d5d43eaafff6e58d3a9769e359899efdd0b98abe43e64736f6c63430008000033",
  "immutableReferences": {},
  "source": "//-U+24B7--\r\n//SPDX-License-Identifier: MIT\r\npragma solidity ^0.8.0;\r\n\r\nimport \"../common-contracts/SafeMath.sol\";\r\nimport \"../common-contracts/AccessControl.sol\";\r\n\r\ncontract Bolita is AccessController {\r\n    using SafeMath for uint256;\r\n    using SafeMath for uint16;\r\n\r\n\r\n    ////////////////////////////////////////////////\r\n    //                  VARS                      //\r\n    ////////////////////////////////////////////////\r\n        address[] players;\r\n        address[] playersNotYetPaidOut;\r\n        //get list of addresses that bet on the winning number, uint16 is used for first, second, third, and all digits\r\n        mapping(uint16 => mapping(BetType => address[])) mapOfBets;\r\n        mapping(address => bool) hasPlayerBetAlready;\r\n        //BELOW IS FOR USE WHEN A PLAYER WINS, BUT THERE IS NO ETH AVAILABLE\r\n        mapping(address => uint256) amountOwedToPlayersForReimbursement;\r\n\r\n        bool public bBettingIsOpen;\r\n        bool public calledByContractFunction;\r\n        bool public bPaymentsAreBacklogged;\r\n        enum BetType {FIRSTDIGIT, SECONDDIGIT, THIRDDIGIT, ALLTHREE}\r\n\r\n        //BET AMOUNT LOCKED TO .005 ETH = 5 Finney\r\n        uint256 constant DEFAULT_BET_AMOUNT_INT = 5000000000000000 wei;\r\n        \r\n        uint256 public singleDigitWinnings = (DEFAULT_BET_AMOUNT_INT).mul(5);\r\n        uint16[] listOfNumbersBetOn;\r\n    \r\n\r\n    /////////////////////////////////////////////////\r\n    //                   EVENTS                    //\r\n    /////////////////////////////////////////////////\r\n        event Received(address, uint);\r\n        event BetAccepted(address bettor,uint16 numberBetOn);\r\n        event BettingIsOpen(bool bettingIsOpenStatus);\r\n        event BettingIsClosed(bool bettingIsClosedStatus);\r\n        event WinningNumbers(uint16 firstWinningNum, uint16 secondWinningNum, uint16 thirdWinningNum);\r\n        event winners(address[] winners, BetType _betType);\r\n        event GotPaid(address _winner);\r\n        event PaymentIsQueued(address _winnerNotYetPaid);\r\n        event BetCleared(address[] bettors, BetType _betType);\r\n        event ALERTFundingNeeded(uint256 amountNeeded);\r\n\r\n\r\n    ////////////////////////////////////////////////\r\n    //                  MODIFIERS                 //\r\n    ////////////////////////////////////////////////\r\n        modifier winningDigitChecker(uint16 _number)\r\n        {\r\n            require(_number >= 0 && _number <= 9,\r\n            \"Winning digit must be 0-9\"\r\n            );\r\n            _;\r\n        }\r\n        //move up to BolitaHelper\r\n        modifier defaultBetAmount(uint256 _betAmount)\r\n        {\r\n            require(\r\n                DEFAULT_BET_AMOUNT_INT == _betAmount,\r\n                \"Bet Amount must be .005 ETH\"\r\n            );\r\n            _;\r\n        }\r\n        modifier hasAddressBetAlready(address _player)\r\n        {\r\n            require(\r\n                hasPlayerBetAlready[_player] != true,\r\n                \"CANNOT EXCEED 1 BET PER DAY\"\r\n            );\r\n            _;\r\n        }\r\n        modifier bettingIsOpen()\r\n        {\r\n            require(\r\n                bBettingIsOpen == true,\r\n                \"Betting is closed\"\r\n            );\r\n            _;\r\n        }\r\n        modifier bettingIsClosed()\r\n        {\r\n            require(\r\n                bBettingIsOpen == false,\r\n                \"Betting is open\"\r\n            );\r\n            _;\r\n        }\r\n        \r\n        modifier onlyCalledByContract()\r\n        {\r\n            require(\r\n                calledByContractFunction == true,\r\n                \"BLOCKING EOA CALL\"\r\n            );\r\n            _;\r\n        }\r\n\r\n        modifier addressBalanceChecker(address[] memory _winners)\r\n        {\r\n            uint256 totalPayout = (_winners.length).mul(singleDigitWinnings);\r\n            if(address(this).balance < totalPayout)\r\n            {\r\n                emit ALERTFundingNeeded(totalPayout);\r\n                bPaymentsAreBacklogged = true;\r\n\r\n                for(uint i = 0; i<_winners.length; i++) {\r\n                    \r\n                    emit PaymentIsQueued(_winners[i]);\r\n                    if(amountOwedToPlayersForReimbursement[_winners[i]] == 0)\r\n                    {\r\n                        playersNotYetPaidOut.push(_winners[i]);\r\n                    }\r\n                    amountOwedToPlayersForReimbursement[_winners[i]] += singleDigitWinnings;\r\n                    \r\n                }\r\n            }            \r\n\r\n            _;\r\n        }\r\n\r\n    //fallback function\r\n    constructor()\r\n        payable \r\n    {\r\n        bBettingIsOpen = true;\r\n        emit BettingIsOpen(bBettingIsOpen);\r\n        //add require for value of ETH sent to contract on deploy\r\n    }\r\n    \r\n    fallback() external payable { \r\n        //console.log(\"FALLBACK\");\r\n    }\r\n    \r\n\r\n    receive() external payable {\r\n        emit Received(msg.sender, msg.value);\r\n    }\r\n    \r\n    function sendETHtoContract()\r\n        external\r\n        payable\r\n    {\r\n        payable(address(this)).transfer(msg.value);\r\n    }\r\n\r\n\r\n    function withdrawBalanceFromContract(uint256 _amount)\r\n        external\r\n        onlyOwner\r\n    {\r\n        payable(ownerAddress).transfer(_amount);\r\n    }\r\n\r\n    function getAddressesByBet(uint16 _numBetOn)\r\n        external\r\n        view\r\n        returns (address[] memory)\r\n    {\r\n        return (mapOfBets[_numBetOn][BetType.FIRSTDIGIT]);\r\n    }\r\n\r\n    ////////////////////////////////////////////////\r\n    //             BETTING FUNCTIONS              //\r\n    ////////////////////////////////////////////////\r\n\r\n        //@dev number length is enforced at UI level. This function is mapped to the submit button for the valid field\r\n        function betOnFirstDigit(address _player, uint16 _numberBetOn)\r\n            external\r\n            payable\r\n        {\r\n            makeBet(_player, _numberBetOn, BetType.FIRSTDIGIT);\r\n        }\r\n        //@dev number length is enforced at UI level\r\n        function betOnSecondDigit(address _player, uint16 _numberBetOn)\r\n            external\r\n            payable\r\n        {\r\n            makeBet(_player, _numberBetOn, BetType.SECONDDIGIT);\r\n        }\r\n        //@dev number length is enforced at UI level\r\n        function betOnThirdDigit(address _player, uint16 _numberBetOn)\r\n            external\r\n            payable\r\n        {\r\n\r\n            makeBet(_player, _numberBetOn, BetType.THIRDDIGIT);\r\n        }\r\n\r\n        function makeBet(\r\n            address _playerAddress,\r\n            uint16 numberBetOn,\r\n            BetType _betType\r\n        )\r\n            public\r\n            payable\r\n            defaultBetAmount(uint256(msg.value))\r\n            hasAddressBetAlready(_playerAddress)\r\n            bettingIsOpen\r\n        {\r\n            \r\n            players.push(_playerAddress);\r\n\r\n            //replaced with list for now\r\n            mapOfBets[numberBetOn][_betType].push(_playerAddress);\r\n            hasPlayerBetAlready[_playerAddress] = true;\r\n            listOfNumbersBetOn.push(numberBetOn);\r\n            payable(address(this)).transfer(msg.value);\r\n\r\n            emit BetAccepted(_playerAddress,numberBetOn);\r\n        }\r\n\r\n\r\n    ////////////////////////////////////////////////\r\n    //    CLOSE BETTING + SETTLEMENT FUNCTIONS    //\r\n    ////////////////////////////////////////////////\r\n\r\n        /**\r\n        * @dev closeBetting() is a pre-req for setWinningNum + its child functions, and clearbets\r\n        */\r\n        function closeBetting()\r\n            external\r\n            onlyAdmin\r\n        {\r\n            bBettingIsOpen = false;\r\n            emit BettingIsOpen(bBettingIsOpen);\r\n            emit BettingIsClosed(bBettingIsOpen);\r\n        }\r\n\r\n        /**\r\n        * setWinningNumber is the main function called by the web app\r\n        * parent function called by admin address to set the winning number, clear everything, and open betting again for the next day\r\n        * emits WinningNumbers to announce the 3 winning numbers\r\n        * @dev uses winningDigitChecker modifer to check for single digit\r\n        * @param _firstWinningNum -- single digit winning number for BetType 0\r\n        * @param _secondWinningNum -- single digit winning number for BetType 1\r\n        * @param _thirdWinningNum -- single digit winning number for BetType 2\r\n\r\n        TODO: change from memory to calldata so public can be external and lower the gas\r\n        */\r\n        function setWinningNumber(uint16 _firstWinningNum,\r\n                                uint16 _secondWinningNum,\r\n                                uint16 _thirdWinningNum)\r\n            external\r\n            payable\r\n            onlyAdmin\r\n            bettingIsClosed\r\n            winningDigitChecker(_firstWinningNum)\r\n            winningDigitChecker(_secondWinningNum)\r\n            winningDigitChecker(_thirdWinningNum)\r\n        {\r\n            emit WinningNumbers(\r\n                _firstWinningNum,\r\n                _secondWinningNum,\r\n                _thirdWinningNum\r\n            );\r\n\r\n            //bool used so admin cannot arbitrarily assign winners - preventing bad actor risk\r\n            calledByContractFunction = true;\r\n            \r\n            processWinners(\r\n                _firstWinningNum,\r\n                _secondWinningNum,\r\n                _thirdWinningNum\r\n            );\r\n\r\n            //clear data\r\n            clearBets(BetType.FIRSTDIGIT);\r\n            clearBets(BetType.SECONDDIGIT);\r\n            clearBets(BetType.THIRDDIGIT);\r\n\r\n            //take snapshot -- for future development\r\n\r\n            //reset bad actor check\r\n            calledByContractFunction = false;\r\n            \r\n            //open back up for betting\r\n            bBettingIsOpen = true;\r\n            emit BettingIsOpen(bBettingIsOpen);\r\n        }\r\n\r\n        /** \r\n        * emits winners calls payWinners\r\n        * @dev only can be called during setWinningNumber using onlyCalledByContract modifier to prevent bad actor\r\n        * @dev can only be called while betting is closed using bettingIsClosed modifier to check\r\n        */\r\n        function processWinners(\r\n            uint16 _firstWinningNum,\r\n            uint16 _secondWinningNum,\r\n            uint16 _thirdWinningNum\r\n        )\r\n            public\r\n            onlyAdmin\r\n            payable\r\n            bettingIsClosed\r\n            onlyCalledByContract\r\n            winningDigitChecker(_firstWinningNum)\r\n            winningDigitChecker(_secondWinningNum)\r\n            winningDigitChecker(_thirdWinningNum)\r\n        {\r\n            \r\n            emit winners(\r\n                mapOfBets[_firstWinningNum][BetType.FIRSTDIGIT],\r\n                BetType.FIRSTDIGIT\r\n            );\r\n            emit winners(\r\n                mapOfBets[_secondWinningNum][BetType.SECONDDIGIT],\r\n                BetType.SECONDDIGIT\r\n            );\r\n            emit winners(\r\n                mapOfBets[_thirdWinningNum][BetType.THIRDDIGIT],\r\n                BetType.THIRDDIGIT\r\n            );\r\n\r\n\r\n            payWinners(\r\n                mapOfBets[_firstWinningNum][BetType.FIRSTDIGIT],\r\n                singleDigitWinnings\r\n            );\r\n            \r\n            payWinners(\r\n                mapOfBets[_secondWinningNum][BetType.SECONDDIGIT],\r\n                singleDigitWinnings\r\n            );\r\n            \r\n            payWinners(\r\n                mapOfBets[_thirdWinningNum][BetType.THIRDDIGIT],\r\n                singleDigitWinnings\r\n            );\r\n        }\r\n\r\n        /**\r\n        *  called by setWinningNumber via processWinners to pay out each winning address\r\n        * @dev only can be called during setWinningNumber using onlyCalledByContract modifier to prevent bad actor\r\n        * @dev can only be called while betting is closed using bettingIsClosed modifier to check\r\n\r\n        TODO: can bettingIsClosed be removed from both paywinners and processwinners?\r\n\r\n        */\r\n        function payWinners(address[] memory _winners, uint256 _winningAmount)\r\n            public\r\n            onlyAdmin\r\n            payable\r\n            onlyCalledByContract\r\n            bettingIsClosed\r\n            addressBalanceChecker(_winners)\r\n        {\r\n            \r\n            for(uint i = 0; i<_winners.length; i++) {\r\n                require(\r\n                    _winners[i] != address(0x0),\r\n                    \"CANNOT USE TEST ACCOUNTS\"\r\n                );\r\n                \r\n                payable(_winners[i]).transfer(_winningAmount);\r\n                emit GotPaid(_winners[i]);   \r\n            }\r\n        }\r\n\r\n        /**\r\n        *  clears data from the day to start new betting day\r\n        * emits betCleared for each address in loop\r\n        * @dev  now requires betting to be closed first, please call closeBetting() from admin address first\r\n\r\n        TODO: could prob be reworked..\r\n\r\n        */\r\n        function clearBets(BetType _betType)\r\n            public\r\n            bettingIsClosed\r\n            onlyAdmin\r\n        {\r\n\r\n            for(uint16 i = 0; i < listOfNumbersBetOn.length; i++)\r\n            {\r\n                emit BetCleared(\r\n                    mapOfBets[listOfNumbersBetOn[i]][_betType],\r\n                    _betType\r\n                );\r\n                delete mapOfBets[listOfNumbersBetOn[i]][_betType];\r\n            }\r\n        \r\n\r\n            for(uint16 j = 0; j < players.length; j++) {\r\n                hasPlayerBetAlready[players[j]] = false;\r\n            }\r\n        }\r\n\r\n    ////////////////////////////////////////////////\r\n    //              ADMIN FUNCTIONS               //\r\n    ////////////////////////////////////////////////\r\n\r\n        function payoutBackloggedWinners()\r\n            public\r\n            payable\r\n            onlyAdmin\r\n        {\r\n            \r\n            require(playersNotYetPaidOut.length > 0,\r\n                    \"NO BACKLOGGED WINNERS\"\r\n            );\r\n\r\n            uint256 totalPayout = (playersNotYetPaidOut.length).mul(singleDigitWinnings);\r\n            if(address(this).balance >= totalPayout) {                \r\n\r\n                for(uint i = 0; i<playersNotYetPaidOut.length; i++) {\r\n                    require(\r\n                        playersNotYetPaidOut[i] != address(0x0),\r\n                        \"CANNOT USE TEST ACCOUNTS\"\r\n                    );\r\n                    \r\n                    payable(playersNotYetPaidOut[i]).transfer(amountOwedToPlayersForReimbursement[playersNotYetPaidOut[i]]);\r\n                    emit GotPaid(playersNotYetPaidOut[i]);   \r\n                }\r\n\r\n                bPaymentsAreBacklogged = false;\r\n            \r\n            }\r\n            else {\r\n                emit ALERTFundingNeeded(totalPayout);\r\n            }\r\n \r\n        }\r\n}\r\n\r\n\r\n//one day we will track and make accessible all previous bet data\r\n//contract BolitaHistory {}\r\n\r\n//contract BolitaHelper {}\r\n\r\n//will inherit BolitaHelper for snapshot before deleting, getWinners, payWinners, etc\r\n//to make Bolita more simple: just makes bets and sets winning number",
  "sourcePath": "c:/dev/bolita_launcher/contracts/bolita-contracts/Bolita.sol",
  "compiler": {
    "name": "solc",
    "version": "0.8.0+commit.c7dfd78e.Emscripten.clang"
  },
  "schemaVersion": "3.4.1",
  "updatedAt": "2021-06-07T19:16:33.245Z",
  "devdoc": {
    "kind": "dev",
    "methods": {
      "clearBets(uint8)": {
        "details": "now requires betting to be closed first, please call closeBetting() from admin address first TODO: could prob be reworked.."
      },
      "closeBetting()": {
        "details": "closeBetting() is a pre-req for setWinningNum + its child functions, and clearbets"
      },
      "payWinners(address[],uint256)": {
        "details": "only can be called during setWinningNumber using onlyCalledByContract modifier to prevent bad actorcan only be called while betting is closed using bettingIsClosed modifier to check TODO: can bettingIsClosed be removed from both paywinners and processwinners?"
      },
      "processWinners(uint16,uint16,uint16)": {
        "details": "only can be called during setWinningNumber using onlyCalledByContract modifier to prevent bad actorcan only be called while betting is closed using bettingIsClosed modifier to check"
      },
      "setWinningNumber(uint16,uint16,uint16)": {
        "details": "uses winningDigitChecker modifer to check for single digit",
        "params": {
          "_firstWinningNum": "-- single digit winning number for BetType 0",
          "_secondWinningNum": "-- single digit winning number for BetType 1",
          "_thirdWinningNum": "-- single digit winning number for BetType 2 TODO: change from memory to calldata so public can be external and lower the gas"
        }
      }
    },
    "version": 1
  },
  "userdoc": {
    "kind": "user",
    "methods": {
      "clearBets(uint8)": {
        "notice": "clears data from the day to start new betting day emits betCleared for each address in loop"
      },
      "payWinners(address[],uint256)": {
        "notice": "called by setWinningNumber via processWinners to pay out each winning address"
      },
      "processWinners(uint16,uint16,uint16)": {
        "notice": "emits winners calls payWinners"
      },
      "setWinningNumber(uint16,uint16,uint16)": {
        "notice": "setWinningNumber is the main function called by the web app parent function called by admin address to set the winning number, clear everything, and open betting again for the next day emits WinningNumbers to announce the 3 winning numbers"
      }
    },
    "version": 1
  }
}